{
  "contractName": "LibraryDemo",
  "abi": [
    {
      "inputs": [],
      "payable": false,
      "stateMutability": "nonpayable",
      "type": "constructor"
    },
    {
      "constant": true,
      "inputs": [],
      "name": "getMedian",
      "outputs": [
        {
          "internalType": "uint256",
          "name": "",
          "type": "uint256"
        }
      ],
      "payable": false,
      "stateMutability": "view",
      "type": "function"
    }
  ],
  "bytecode": "0x608060405234801561001057600080fd5b50600060019080600181540180825580915050906001820390600052602060002001600090919290919091505550600060029080600181540180825580915050906001820390600052602060002001600090919290919091505550600060029080600181540180825580915050906001820390600052602060002001600090919290919091505550600060059080600181540180825580915050906001820390600052602060002001600090919290919091505550610112806100d46000396000f3fe6080604052348015600f57600080fd5b506004361060285760003560e01c80631ff7dabc14602d575b600080fd5b60336049565b6040518082815260200191505060405180910390f35b60008073__Median________________________________63befef0f960006040518263ffffffff1660e01b81526004018082815260200191505060206040518083038186803b158015609b57600080fd5b505af415801560ae573d6000803e3d6000fd5b505050506040513d602081101560c357600080fd5b81019080805190602001909291905050509050809150509056fea265627a7a7231582015384ba2614585ed5b7f1e4cfbac6d4fb0f67e63dcd660d8edef8b84a7ea8e0764736f6c63430005100032",
  "deployedBytecode": "0x6080604052348015600f57600080fd5b506004361060285760003560e01c80631ff7dabc14602d575b600080fd5b60336049565b6040518082815260200191505060405180910390f35b60008073__Median________________________________63befef0f960006040518263ffffffff1660e01b81526004018082815260200191505060206040518083038186803b158015609b57600080fd5b505af415801560ae573d6000803e3d6000fd5b505050506040513d602081101560c357600080fd5b81019080805190602001909291905050509050809150509056fea265627a7a7231582015384ba2614585ed5b7f1e4cfbac6d4fb0f67e63dcd660d8edef8b84a7ea8e0764736f6c63430005100032",
  "source": "// SPDX-License-Identifier: MIT\npragma solidity >=0.4.21 <0.7.0;\n\nlibrary Median{\n\n    function medianOfArray(uint[] storage arr) public view returns (uint){\n\n        \n        uint size = arr.length;\n        if(size % 2 == 0){\n            return ((arr[size/2] + arr[(size/2) -1])/2);\n        }else{\n            return arr[size/2];\n        }\n\n    }\n}\n\ncontract LibraryDemo{\n\n    uint[] arr;\n\n    constructor() public{\n        arr.push(1);\n        arr.push(2);\n        arr.push(2);\n        arr.push(5);\n    }\n\n    function getMedian() public view returns(uint){\n\n        uint median = Median.medianOfArray(arr);\n        return median;\n\n    }\n\n}",
  "sourcePath": "/home/madhura_111/Documents/Madhura/Blockchian/HospitalRecord/contracts/LibraryDemo.sol",
  "compiler": {
    "name": "solc",
    "version": "0.5.16+commit.9c3226ce.Emscripten.clang"
  },
  "schemaVersion": "3.2.3",
  "updatedAt": "2020-10-28T05:45:30.991Z",
  "devdoc": {
    "methods": {}
  },
  "userdoc": {
    "methods": {}
  }
}